:020000040000FA
:100000000C9434000C9449000C9449000C94490061
:100010000C9449000C9449000C9449000C9449003C
:100020000C9449000C9449000C9449000C9449002C
:100030000C9449000C9449000C9449000C9449001C
:100040000C9449000C9449000C9449000C9449000C
:100050000C9449000C9449000C9449000C944900FC
:100060000C9449000C94490011241FBECFEFD8E036
:10007000DEBFCDBF11E0A0E0B1E0EEE2F2E002C0F1
:1000800005900D92AA31B107D9F70E9472000C9425
:1000900015010C940000FC01919119168CF495B98E
:1000A0005E9A5D9A2FEF89EF90E02150804090405A
:1000B000E1F700C000009BB1907C9BB915B8ECCF74
:1000C000089585B95E985D9A2FEF89EF90E02150F1
:1000D00080409040E1F700C000008BB1807C8BB97C
:1000E00015B80895CF93DF9300D01F92CDB7DEB738
:1000F0008FEF84B98AB92FEF80E792E021508040DA
:100100009040E1F700C0000080917C00806C8093FB
:100110007C0080917A00876A80937A0081E00E9457
:1001200061002FEF80E792E0215080409040E1F79E
:1001300000C0000088E30E9461002FEF80E792E09A
:10014000215080409040E1F700C000008FE00E9405
:1001500061002FEF80E792E0215080409040E1F76E
:1001600000C0000080917A00806480937A00009142
:1001700078001091790080E091E00E944B0080ECC3
:100180000E94610089E091E00E944B0088EC0E948F
:1001900061004AE0BE016F5F7F4FC8019695879569
:1001A000969587950E94E000CE0101960E944B0033
:1001B00082E191E00E944B0080E80E946100D7CF6D
:1001C000BB274A3031F4992322F4BDE29095819502
:1001D0009F4F0C94EC00BB27FB015527AA27880FE3
:1001E000991FAA1FA41710F0A41B83955051B9F7AB
:1001F000A05DAA3308F0A95DA193009779F7B1112A
:10020000B1931192CB010C940501DC01FC01672F25
:1002100071917723E1F7329704C07C916D937083DD
:100220006291AE17BF07C8F30895F894FFCF5375D6
:1002300072656E6472610054656D702843293D00DB
:080240002020202020200000F6
:107E0000112484B714BE81FFF0D085E080938100F7
:107E100082E08093C00088E18093C10086E0809377
:107E2000C20080E18093C4008EE0C9D0259A86E02C
:107E300020E33CEF91E0309385002093840096BBD3
:107E4000B09BFECF1D9AA8958150A9F7CC24DD24C4
:107E500088248394B5E0AB2EA1E19A2EF3E0BF2EE7
:107E6000A2D0813461F49FD0082FAFD0023811F036
:107E7000013811F484E001C083E08DD089C08234E0
:107E800011F484E103C0853419F485E0A6D080C0E4
:107E9000853579F488D0E82EFF2485D0082F10E0AE
:107EA000102F00270E291F29000F111F8ED06801E7
:107EB0006FC0863521F484E090D080E0DECF843638
:107EC00009F040C070D06FD0082F6DD080E0C81688
:107ED00080E7D80618F4F601B7BEE895C0E0D1E017
:107EE00062D089930C17E1F7F0E0CF16F0E7DF06D8
:107EF00018F0F601B7BEE89568D007B600FCFDCFD4
:107F0000A601A0E0B1E02C9130E011968C91119780
:107F100090E0982F8827822B932B1296FA010C0160
:107F200087BEE89511244E5F5F4FF1E0A038BF0790
:107F300051F7F601A7BEE89507B600FCFDCF97BE46
:107F4000E89526C08437B1F42ED02DD0F82E2BD052
:107F50003CD0F601EF2C8F010F5F1F4F84911BD097
:107F6000EA94F801C1F70894C11CD11CFA94CF0C13
:107F7000D11C0EC0853739F428D08EE10CD085E9AC
:107F80000AD08FE07ACF813511F488E018D01DD067
:107F900080E101D065CF982F8091C00085FFFCCF94
:107FA0009093C60008958091C00087FFFCCF809118
:107FB000C00084FD01C0A8958091C6000895E0E648
:107FC000F0E098E1908380830895EDDF803219F02E
:107FD00088E0F5DFFFCF84E1DECF1F93182FE3DFCA
:107FE0001150E9F7F2DF1F91089580E0E8DFEE27F6
:047FF000FF270994CA
:027FFE00040479
:00000001FF
