:100000000C9434000C9449000C9449000C94490061
:100010000C9449000C9449000C9449000C9449003C
:100020000C9449000C9449000C9449000C9449002C
:100030000C9449000C9449000C9449000C9449001C
:100040000C9449000C9449000C9449000C9449000C
:100050000C9449000C9449000C9449000C944900FC
:100060000C9449000C94490011241FBECFEFD8E036
:10007000DEBFCDBF11E0A0E0B1E0EAE2F2E002C0F5
:1000800005900D92AA31B107D9F70E947C000C941B
:1000900013010C94000085B98BB18F7B8BB98BB1A8
:1000A00080628BB987E893E10197F1F700C0000007
:1000B0008BB1807C8BB915B8089585B98BB18064FC
:1000C0008BB98BB180628BB987E893E10197F1F727
:1000D00000C000008BB1807C8BB915B80895CF9318
:1000E000DF93EC0103C021960E945D00888181119D
:1000F000FACFDF91CF910895CF93DF9300D01F9275
:10010000CDB7DEB78FEF84B98AB983ED90E301975D
:10011000F1F700C00000ECE7F0E08081806C8083A4
:100120000AE710E0F8018081876A808381E00E94FD
:100130004B0083ED90E30197F1F700C0000088E3E6
:100140000E944B00E3EDF0E33197F1F700C00000AF
:100150008FE00E944B0083ED90E30197F1F700C020
:100160000000F80180818064808300917800109104
:100170007900169507951695079580E091E00E9405
:100180006F0080EC0E944B008AE091E00E946F00BB
:1001900088EC0E944B004AE0BE016F5F7F4FC801B0
:1001A0000E94DE00CE0101960E946F0083E191E083
:1001B0000E946F0080E80E944B00D7CFBB274A30D7
:1001C00031F4992322F4BDE2909581959F4F0C94D0
:1001D000EA00BB27FB015527AA27880F991FAA1FF2
:1001E000A41710F0A41B83955051B9F7A05DAA3352
:1001F00008F0A95DA193009779F7B111B19311921D
:10020000CB010C940301DC01FC01672F7191772372
:10021000E1F7329704C07C916D9370836291AE17C1
:0A022000BF07C8F30895F894FFCF5C
:10022A004F4D2047415554414D0054656D70284348
:0A023A00293D002020202020200094
:00000001FF
